{
  "contractName": "Furance",
  "abi": [
    {
      "constant": true,
      "inputs": [],
      "name": "ashes",
      "outputs": [
        {
          "name": "",
          "type": "uint256"
        }
      ],
      "payable": false,
      "stateMutability": "view",
      "type": "function",
      "signature": "0x536b8998"
    },
    {
      "constant": false,
      "inputs": [],
      "name": "renounceOwnership",
      "outputs": [],
      "payable": false,
      "stateMutability": "nonpayable",
      "type": "function",
      "signature": "0x715018a6"
    },
    {
      "constant": true,
      "inputs": [],
      "name": "extinguished",
      "outputs": [
        {
          "name": "",
          "type": "bool"
        }
      ],
      "payable": false,
      "stateMutability": "view",
      "type": "function",
      "signature": "0x82768b44"
    },
    {
      "constant": true,
      "inputs": [],
      "name": "owner",
      "outputs": [
        {
          "name": "",
          "type": "address"
        }
      ],
      "payable": false,
      "stateMutability": "view",
      "type": "function",
      "signature": "0x8da5cb5b"
    },
    {
      "constant": true,
      "inputs": [],
      "name": "isOwner",
      "outputs": [
        {
          "name": "",
          "type": "bool"
        }
      ],
      "payable": false,
      "stateMutability": "view",
      "type": "function",
      "signature": "0x8f32d59b"
    },
    {
      "constant": true,
      "inputs": [],
      "name": "pyro",
      "outputs": [
        {
          "name": "",
          "type": "address"
        }
      ],
      "payable": false,
      "stateMutability": "view",
      "type": "function",
      "signature": "0xe26f024e"
    },
    {
      "constant": false,
      "inputs": [
        {
          "name": "newOwner",
          "type": "address"
        }
      ],
      "name": "transferOwnership",
      "outputs": [],
      "payable": false,
      "stateMutability": "nonpayable",
      "type": "function",
      "signature": "0xf2fde38b"
    },
    {
      "anonymous": false,
      "inputs": [
        {
          "indexed": true,
          "name": "sender",
          "type": "address"
        },
        {
          "indexed": true,
          "name": "token",
          "type": "address"
        },
        {
          "indexed": false,
          "name": "value",
          "type": "uint256"
        },
        {
          "indexed": false,
          "name": "pyroValue",
          "type": "uint256"
        }
      ],
      "name": "Burn",
      "type": "event",
      "signature": "0x5d624aa9c148153ab3446c1b154f660ee7701e549fe9b62dab7171b1c80e6fa2"
    },
    {
      "anonymous": false,
      "inputs": [
        {
          "indexed": true,
          "name": "previousOwner",
          "type": "address"
        },
        {
          "indexed": true,
          "name": "newOwner",
          "type": "address"
        }
      ],
      "name": "OwnershipTransferred",
      "type": "event",
      "signature": "0x8be0079c531659141344cd1fd0a4f28419497f9722a3daafe3b4186f6b6457e0"
    },
    {
      "constant": false,
      "inputs": [],
      "name": "exitgush",
      "outputs": [
        {
          "name": "",
          "type": "bool"
        }
      ],
      "payable": false,
      "stateMutability": "nonpayable",
      "type": "function",
      "signature": "0x88ac87ab"
    },
    {
      "constant": false,
      "inputs": [],
      "name": "bind",
      "outputs": [
        {
          "name": "",
          "type": "bool"
        }
      ],
      "payable": false,
      "stateMutability": "nonpayable",
      "type": "function",
      "signature": "0x62358aad"
    },
    {
      "constant": true,
      "inputs": [
        {
          "name": "token_",
          "type": "address"
        },
        {
          "name": "value",
          "type": "uint256"
        }
      ],
      "name": "estimateMintAmount",
      "outputs": [
        {
          "name": "",
          "type": "uint256"
        }
      ],
      "payable": false,
      "stateMutability": "view",
      "type": "function",
      "signature": "0x3bb1ba6f"
    },
    {
      "constant": true,
      "inputs": [
        {
          "name": "token_",
          "type": "address"
        }
      ],
      "name": "getTokenState",
      "outputs": [
        {
          "name": "",
          "type": "uint256"
        },
        {
          "name": "",
          "type": "uint256"
        },
        {
          "name": "",
          "type": "uint256"
        },
        {
          "name": "",
          "type": "uint256"
        },
        {
          "name": "",
          "type": "uint256"
        },
        {
          "name": "",
          "type": "uint256"
        }
      ],
      "payable": false,
      "stateMutability": "view",
      "type": "function",
      "signature": "0x0b3eb970"
    },
    {
      "constant": false,
      "inputs": [
        {
          "name": "token_",
          "type": "address"
        },
        {
          "name": "value",
          "type": "uint256"
        },
        {
          "name": "minimalPyroValue",
          "type": "uint256"
        }
      ],
      "name": "burn",
      "outputs": [
        {
          "name": "",
          "type": "bool"
        }
      ],
      "payable": false,
      "stateMutability": "nonpayable",
      "type": "function",
      "signature": "0xf5298aca"
    },
    {
      "constant": false,
      "inputs": [
        {
          "name": "token_",
          "type": "address"
        },
        {
          "name": "a",
          "type": "uint256"
        },
        {
          "name": "kappa0",
          "type": "uint256"
        },
        {
          "name": "w",
          "type": "uint256"
        }
      ],
      "name": "addFuel",
      "outputs": [
        {
          "name": "",
          "type": "bool"
        }
      ],
      "payable": false,
      "stateMutability": "nonpayable",
      "type": "function",
      "signature": "0xe63b18e1"
    }
  ],
  "bytecode": "0x6080604081905260008054600160a060020a0319163317808255600160a060020a0316917f8be0079c531659141344cd1fd0a4f28419497f9722a3daafe3b4186f6b6457e0908290a3610b65806100576000396000f3fe608060405234801561001057600080fd5b50600436106100ec576000357c01000000000000000000000000000000000000000000000000000000009004806388ac87ab116100a9578063e26f024e11610083578063e26f024e146101f2578063e63b18e1146101fa578063f2fde38b14610232578063f5298aca14610258576100ec565b806388ac87ab146101be5780638da5cb5b146101c65780638f32d59b146101ea576100ec565b80630b3eb970146100f15780633bb1ba6f1461014a578063536b89981461018857806362358aad14610190578063715018a6146101ac57806382768b44146101b6575b600080fd5b6101176004803603602081101561010757600080fd5b5035600160a060020a031661028a565b604080519687526020870195909552858501939093526060850191909152608084015260a0830152519081900360c00190f35b6101766004803603604081101561016057600080fd5b50600160a060020a0381351690602001356102f3565b60408051918252519081900360200190f35b6101766103b7565b6101986103bd565b604080519115158252519081900360200190f35b6101b46103fb565b005b610198610465565b610198610475565b6101ce6104cb565b60408051600160a060020a039092168252519081900360200190f35b6101986104da565b6101ce6104eb565b6101986004803603608081101561021057600080fd5b50600160a060020a0381351690602081013590604081013590606001356104fa565b6101b46004803603602081101561024857600080fd5b5035600160a060020a03166105c6565b6101986004803603606081101561026e57600080fd5b50600160a060020a0381351690602081013590604001356105e5565b60008060008060008060006003600089600160a060020a0316600160a060020a03168152602001908152602001600020905080600101548160020154826003015483600401546102d985610930565b600790950154939c929b5090995097509195509350915050565b600160a060020a0382166000908152600360205260408120600781015483908390670de0b6b3a76400009061033390670de054ef3dac05f890430361096b565b84600401540281151561034257fe5b0490508481016000670de0b6b3a764000061035c846109f7565b610365846109f7565b0386600101540281151561037557fe5b049050600061038386610930565b9050670de0b6b3a7640000858202048211156103a957670de0b6b3a76400008582020491505b509450505050505b92915050565b60015481565b600254600090600160a060020a0316156103d657600080fd5b506002805473ffffffffffffffffffffffffffffffffffffffff191633179055600190565b6104036104da565b151561040e57600080fd5b60008054604051600160a060020a03909116907f8be0079c531659141344cd1fd0a4f28419497f9722a3daafe3b4186f6b6457e0908390a36000805473ffffffffffffffffffffffffffffffffffffffff19169055565b60005460a060020a900460ff1681565b600061047f6104da565b151561048a57600080fd5b60005460a060020a900460ff16156104a157600080fd5b506000805474ff0000000000000000000000000000000000000000191660a060020a179055600190565b600054600160a060020a031690565b600054600160a060020a0316331490565b600254600160a060020a031681565b60006105046104da565b151561050f57600080fd5b60005460a060020a900460ff161561052657600080fd5b6040805161010081018252600180825260208083019788526000838501818152606085018281526080860183815260a087019a8b5260c08701998a524360e08801908152600160a060020a039d909d168452600394859052969092209451855460ff191690151517855598519284019290925596516002830155519581019590955551600485015591516005840155516006830155915160079091015590565b6105ce6104da565b15156105d957600080fd5b6105e281610a66565b50565b6000805460a060020a900460ff16156105fd57600080fd5b6000831161060a57600080fd5b604080517f23b872dd000000000000000000000000000000000000000000000000000000008152336004820152306024820152604481018590529051600160a060020a038616916323b872dd9160648083019260209291908290030181600087803b15801561067857600080fd5b505af115801561068c573d6000803e3d6000fd5b505050506040513d60208110156106a257600080fd5b505115156106af57600080fd5b600160a060020a0384166000908152600360205260409020805460ff1615156106d757600080fd5b60008490506000670de0b6b3a76400006106ff670de054ef3dac05f88560070154430361096b565b84600401540281151561070e57fe5b0490508181016000670de0b6b3a7640000610728846109f7565b610731846109f7565b0386600101540281151561074157fe5b049050600061074f86610930565b9050670de0b6b3a76400008582020482111561077557670de0b6b3a76400008582020491505b8782101561078257600080fd5b60028601805486019055600386018054830190556004808701849055436007880155604080517f70a08231000000000000000000000000000000000000000000000000000000008152339281019290925251600160a060020a038c16916370a08231916024808301926020929190829003018186803b15801561080457600080fd5b505afa158015610818573d6000803e3d6000fd5b505050506040513d602081101561082e57600080fd5b5051151561083f5760018054810190555b600254604080517f40c10f19000000000000000000000000000000000000000000000000000000008152336004820152602481018590529051600160a060020a03909216916340c10f19916044808201926020929091908290030181600087803b1580156108ac57600080fd5b505af11580156108c0573d6000803e3d6000fd5b505050506040513d60208110156108d657600080fd5b505060408051868152602081018490528151600160a060020a038d169233927f5d624aa9c148153ab3446c1b154f660ee7701e549fe9b62dab7171b1c80e6fa2929081900390910190a35060019998505050505050505050565b60068101546002820154600583015460009291820191670de0b6b3a764000091829102048460030154010281151561096457fe5b0492915050565b6000670de0b6b3a764000082825b50506002808404908102840360018114156109b9576109b6670de0b6b3a76400006109aa858963ffffffff610ae316565b9063ffffffff610b1516565b92505b8115156109c5576109ed565b90935083906109e6670de0b6b3a76400006109aa888063ffffffff610ae316565b9550610979565b5090949350505050565b6000600260018301908104901515610a2c57507f80000000000000000000000000000000000000000000000000000000000000005b8291505b81811015610a5a578091506001818285811515610a4957fe5b60029390930a920401049050610a30565b50633b9aca0002919050565b600160a060020a0381161515610a7b57600080fd5b60008054604051600160a060020a03808516939216917f8be0079c531659141344cd1fd0a4f28419497f9722a3daafe3b4186f6b6457e091a36000805473ffffffffffffffffffffffffffffffffffffffff1916600160a060020a0392909216919091179055565b6000821515610af4575060006103b1565b828202828482811515610b0357fe5b0414610b0e57600080fd5b9392505050565b6000808211610b2357600080fd5b60008284811515610b3057fe5b0494935050505056fea165627a7a72305820584b5dcf74b23e1f8ae55a21fa4bec65aaa3f6826c965224195a880935aacc4d0029",
  "source": "pragma solidity >=0.5.2;\r\n\r\n/**\r\nThis is hackathon edition of our Furance contract. Will be replaced with production version later.\r\n */\r\n\r\nimport \"openzeppelin-solidity/contracts/ownership/Ownable.sol\";\r\nimport \"openzeppelin-solidity/contracts/token/ERC20/IERC20.sol\";\r\nimport \"openzeppelin-solidity/contracts/math/SafeMath.sol\";\r\n\r\n\r\ninterface IPyroToken {\r\n  function mint(address, uint) external returns(bool);\r\n}\r\n\r\n\r\ncontract Furance is Ownable {\r\n  event Burn(address indexed sender, address indexed token, uint value, uint pyroValue);\r\n  using SafeMath for uint;\r\n  \r\n  bool public extinguished;\r\n  uint public ashes;\r\n  IPyroToken public pyro;\r\n\r\n  uint constant alpha = 999892503784850936; // decay per block corresponds 0.5 decay per day\r\n  uint constant DECIMAL_MULTIPLIER=1e18;\r\n  uint constant DECIMAL_HALFMULTIPLIER=1e9;\r\n\r\n\r\n  function _sqrt(uint x) internal pure returns (uint y) {\r\n    uint z = (x + 1) >> 1;\r\n    if ( x+1 == 0) z = 1<<255;\r\n    y = x;\r\n    while (z < y) {\r\n      y = z;\r\n      z = (x / z + z) >> 1;\r\n    }\r\n    y = y * DECIMAL_HALFMULTIPLIER;\r\n  }\r\n\r\n  /* solium-disable-next-line */\r\n  function _pown(uint x, uint z) internal pure returns(uint) {\r\n    uint res = DECIMAL_MULTIPLIER;\r\n    uint t = z;\r\n    uint bit;\r\n    while (true) {\r\n      t = z >> 1;\r\n      bit = z - (t << 1);\r\n      if (bit == 1)\r\n        res = res.mul(x).div(DECIMAL_MULTIPLIER);\r\n      if (t==0) break;\r\n      z = t; \r\n      x = x.mul(x).div(DECIMAL_MULTIPLIER);\r\n    }\r\n    return res;\r\n  }\r\n\r\n\r\n  struct token {\r\n    bool enabled;\r\n    uint a; //mintable performance parameter, depending for market capitalization\r\n    uint b; //tokens burned\r\n    uint c; //tokens minted\r\n    uint r; //burnrate\r\n    uint kappa_0; //initial kappa\r\n    uint w; //weight of initial kappa\r\n    uint blockNumber;\r\n  }\r\n\r\n  mapping(address=>token) tokens;\r\n\r\n  modifier notExitgushed {\r\n    require(!extinguished);\r\n    _;\r\n  }\r\n\r\n  function exitgush() public onlyOwner notExitgushed returns(bool) {\r\n    extinguished=true;\r\n    return true;\r\n  }\r\n\r\n\r\n  function bind() public returns(bool) {\r\n    require(address(0) == address(pyro));\r\n    pyro = IPyroToken(msg.sender);\r\n    return true;\r\n  }\r\n\r\n  function _kappa(token storage t) internal view returns(uint) {\r\n    return (t.c + t.kappa_0 * t.w / DECIMAL_MULTIPLIER) * DECIMAL_MULTIPLIER / (t.b + t.w);\r\n  }\r\n\r\n\r\n  function estimateMintAmount(address token_, uint value) public view returns(uint) {\r\n    token storage t = tokens[token_];\r\n    uint b_i = value;\r\n    uint r_is = t.r * _pown(alpha, block.number - t.blockNumber) / DECIMAL_MULTIPLIER;\r\n    uint r_i = r_is + value;\r\n    uint c_i = t.a*(_sqrt(r_i) - _sqrt(r_is))/ DECIMAL_MULTIPLIER;\r\n    uint kappa = _kappa(t);\r\n    if (c_i > b_i*kappa/DECIMAL_MULTIPLIER) c_i = b_i*kappa/DECIMAL_MULTIPLIER;\r\n    return c_i;\r\n  }\r\n\r\n  function getTokenState(address token_) public view returns(uint, uint, uint, uint, uint, uint) {\r\n    token storage t = tokens[token_];\r\n    return (t.a, t.b, t.c, t.r, _kappa(t), t.blockNumber);\r\n  }\r\n\r\n  function burn(address token_, uint value, uint minimalPyroValue) public notExitgushed returns (bool) {\r\n    require(value > 0);\r\n    require(IERC20(token_).transferFrom(msg.sender, address(this), value));\r\n    token storage t = tokens[token_];\r\n    require(t.enabled);\r\n    uint b_i = value;\r\n    uint r_is = t.r * _pown(alpha, block.number - t.blockNumber) / DECIMAL_MULTIPLIER;\r\n    uint r_i = r_is + b_i;\r\n    uint c_i = t.a*(_sqrt(r_i) - _sqrt(r_is)) / DECIMAL_MULTIPLIER;\r\n    uint kappa = _kappa(t);\r\n    if (c_i > b_i*kappa/DECIMAL_MULTIPLIER) c_i = b_i*kappa/DECIMAL_MULTIPLIER;\r\n    require(c_i >= minimalPyroValue);\r\n    t.b += b_i;\r\n    t.c += c_i;\r\n    t.r = r_i;\r\n    t.blockNumber = block.number;\r\n    if (IERC20(token_).balanceOf(msg.sender)==0) ashes+=1;\r\n    pyro.mint(msg.sender, c_i);\r\n    emit Burn(msg.sender, token_, b_i, c_i);\r\n    return true;\r\n  } \r\n\r\n  function addFuel(address token_, uint a, uint kappa0, uint w) public onlyOwner notExitgushed returns (bool) {\r\n    tokens[token_] = token(true, a, 0, 0, 0, kappa0, w, block.number);\r\n  }\r\n\r\n}",
  "sourcePath": "C:/Users/snjax/Documents/projects/mixed/ethparis/pyrotoken/smart_contracts/contracts/Furance.sol",
  "compiler": {
    "name": "solc",
    "version": "0.5.2+commit.1df8f40c.Emscripten.clang"
  },
  "schemaVersion": "3.0.2",
  "updatedAt": "2019-03-09T23:14:21.808Z",
  "devdoc": {
    "methods": {
      "isOwner()": {
        "return": "true if `msg.sender` is the owner of the contract."
      },
      "owner()": {
        "return": "the address of the owner."
      },
      "renounceOwnership()": {
        "details": "Allows the current owner to relinquish control of the contract."
      },
      "transferOwnership(address)": {
        "details": "Allows the current owner to transfer control of the contract to a newOwner.",
        "params": {
          "newOwner": "The address to transfer ownership to."
        }
      }
    }
  },
  "userdoc": {
    "methods": {
      "renounceOwnership()": {
        "notice": "Renouncing to ownership will leave the contract without an owner. It will not be possible to call the functions with the `onlyOwner` modifier anymore."
      }
    }
  }
}