{
  "contractName": "Furance",
  "abi": [
    {
      "constant": false,
      "inputs": [],
      "name": "renounceOwnership",
      "outputs": [],
      "payable": false,
      "stateMutability": "nonpayable",
      "type": "function",
      "signature": "0x715018a6"
    },
    {
      "constant": true,
      "inputs": [],
      "name": "extinguished",
      "outputs": [
        {
          "name": "",
          "type": "bool"
        }
      ],
      "payable": false,
      "stateMutability": "view",
      "type": "function",
      "signature": "0x82768b44"
    },
    {
      "constant": true,
      "inputs": [],
      "name": "owner",
      "outputs": [
        {
          "name": "",
          "type": "address"
        }
      ],
      "payable": false,
      "stateMutability": "view",
      "type": "function",
      "signature": "0x8da5cb5b"
    },
    {
      "constant": true,
      "inputs": [],
      "name": "isOwner",
      "outputs": [
        {
          "name": "",
          "type": "bool"
        }
      ],
      "payable": false,
      "stateMutability": "view",
      "type": "function",
      "signature": "0x8f32d59b"
    },
    {
      "constant": true,
      "inputs": [],
      "name": "pyro",
      "outputs": [
        {
          "name": "",
          "type": "address"
        }
      ],
      "payable": false,
      "stateMutability": "view",
      "type": "function",
      "signature": "0xe26f024e"
    },
    {
      "constant": false,
      "inputs": [
        {
          "name": "newOwner",
          "type": "address"
        }
      ],
      "name": "transferOwnership",
      "outputs": [],
      "payable": false,
      "stateMutability": "nonpayable",
      "type": "function",
      "signature": "0xf2fde38b"
    },
    {
      "anonymous": false,
      "inputs": [
        {
          "indexed": true,
          "name": "sender",
          "type": "address"
        },
        {
          "indexed": true,
          "name": "token",
          "type": "address"
        },
        {
          "indexed": false,
          "name": "value",
          "type": "uint256"
        },
        {
          "indexed": false,
          "name": "pyroValue",
          "type": "uint256"
        }
      ],
      "name": "Burn",
      "type": "event",
      "signature": "0x5d624aa9c148153ab3446c1b154f660ee7701e549fe9b62dab7171b1c80e6fa2"
    },
    {
      "anonymous": false,
      "inputs": [
        {
          "indexed": true,
          "name": "previousOwner",
          "type": "address"
        },
        {
          "indexed": true,
          "name": "newOwner",
          "type": "address"
        }
      ],
      "name": "OwnershipTransferred",
      "type": "event",
      "signature": "0x8be0079c531659141344cd1fd0a4f28419497f9722a3daafe3b4186f6b6457e0"
    },
    {
      "constant": false,
      "inputs": [],
      "name": "exitgush",
      "outputs": [
        {
          "name": "",
          "type": "bool"
        }
      ],
      "payable": false,
      "stateMutability": "nonpayable",
      "type": "function",
      "signature": "0x88ac87ab"
    },
    {
      "constant": false,
      "inputs": [],
      "name": "bind",
      "outputs": [
        {
          "name": "",
          "type": "bool"
        }
      ],
      "payable": false,
      "stateMutability": "nonpayable",
      "type": "function",
      "signature": "0x62358aad"
    },
    {
      "constant": true,
      "inputs": [
        {
          "name": "token_",
          "type": "address"
        },
        {
          "name": "value",
          "type": "uint256"
        }
      ],
      "name": "estimateMintAmount",
      "outputs": [
        {
          "name": "",
          "type": "uint256"
        }
      ],
      "payable": false,
      "stateMutability": "view",
      "type": "function",
      "signature": "0x3bb1ba6f"
    },
    {
      "constant": false,
      "inputs": [
        {
          "name": "token_",
          "type": "address"
        },
        {
          "name": "value",
          "type": "uint256"
        },
        {
          "name": "minimalPyroValue",
          "type": "uint256"
        }
      ],
      "name": "burn",
      "outputs": [
        {
          "name": "",
          "type": "bool"
        }
      ],
      "payable": false,
      "stateMutability": "nonpayable",
      "type": "function",
      "signature": "0xf5298aca"
    },
    {
      "constant": false,
      "inputs": [
        {
          "name": "token_",
          "type": "address"
        },
        {
          "name": "a",
          "type": "uint256"
        },
        {
          "name": "kappa0",
          "type": "uint256"
        },
        {
          "name": "w",
          "type": "uint256"
        }
      ],
      "name": "addFuel",
      "outputs": [
        {
          "name": "",
          "type": "bool"
        }
      ],
      "payable": false,
      "stateMutability": "nonpayable",
      "type": "function",
      "signature": "0xe63b18e1"
    }
  ],
  "bytecode": "0x6080604081905260008054600160a060020a0319163317808255600160a060020a0316917f8be0079c531659141344cd1fd0a4f28419497f9722a3daafe3b4186f6b6457e0908290a36109c6806100576000396000f3fe608060405234801561001057600080fd5b50600436106100c6576000357c0100000000000000000000000000000000000000000000000000000000900480638da5cb5b1161008e5780638da5cb5b1461013f5780638f32d59b14610163578063e26f024e1461016b578063e63b18e114610173578063f2fde38b146101ab578063f5298aca146101d1576100c6565b80633bb1ba6f146100cb57806362358aad14610109578063715018a61461012557806382768b441461012f57806388ac87ab14610137575b600080fd5b6100f7600480360360408110156100e157600080fd5b50600160a060020a038135169060200135610203565b60408051918252519081900360200190f35b6101116102c7565b604080519115158252519081900360200190f35b61012d610303565b005b61011161036d565b61011161037d565b6101476103d3565b60408051600160a060020a039092168252519081900360200190f35b6101116103e2565b6101476103f3565b6101116004803603608081101561018957600080fd5b50600160a060020a038135169060208101359060408101359060600135610402565b61012d600480360360208110156101c157600080fd5b5035600160a060020a03166104cf565b610111600480360360608110156101e757600080fd5b50600160a060020a0381351690602081013590604001356104ee565b600160a060020a0382166000908152600260205260408120600781015483908390670de0b6b3a76400009061024390670de054ef3dac05f8904303610791565b84600401540281151561025257fe5b0490508481016000670de0b6b3a764000061026c8461081d565b6102758461081d565b0386600101540281151561028557fe5b04905060006102938661088c565b9050670de0b6b3a7640000858202048211156102b957670de0b6b3a76400008582020491505b509450505050505b92915050565b600154600090600160a060020a0316156102e057600080fd5b506001805473ffffffffffffffffffffffffffffffffffffffff19163317815590565b61030b6103e2565b151561031657600080fd5b60008054604051600160a060020a03909116907f8be0079c531659141344cd1fd0a4f28419497f9722a3daafe3b4186f6b6457e0908390a36000805473ffffffffffffffffffffffffffffffffffffffff19169055565b60005460a060020a900460ff1681565b60006103876103e2565b151561039257600080fd5b60005460a060020a900460ff16156103a957600080fd5b506000805474ff0000000000000000000000000000000000000000191660a060020a179055600190565b600054600160a060020a031690565b600054600160a060020a0316331490565b600154600160a060020a031681565b600061040c6103e2565b151561041757600080fd5b60005460a060020a900460ff161561042e57600080fd5b6040805161010081018252600180825260208083019788526000838501818152606085018281526080860183815260a087019a8b5260c08701998a524360e08801908152600160a060020a039d909d168452600294859052969092209451855460ff19169015151785559851928401929092559651968201969096559451600386015551600485015591516005840155516006830155915160079091015590565b6104d76103e2565b15156104e257600080fd5b6104eb816108c7565b50565b6000805460a060020a900460ff161561050657600080fd5b604080517f23b872dd000000000000000000000000000000000000000000000000000000008152336004820152306024820152604481018590529051600160a060020a038616916323b872dd9160648083019260209291908290030181600087803b15801561057457600080fd5b505af1158015610588573d6000803e3d6000fd5b505050506040513d602081101561059e57600080fd5b505115156105ab57600080fd5b600160a060020a0384166000908152600260205260409020805460ff1615156105d357600080fd5b60008490506000670de0b6b3a76400006105fb670de054ef3dac05f885600701544303610791565b84600401540281151561060a57fe5b0490508181016000670de0b6b3a76400006106248461081d565b61062d8461081d565b0386600101540281151561063d57fe5b049050600061064b8661088c565b9050670de0b6b3a76400008582020482111561067157670de0b6b3a76400008582020491505b8782101561067e57600080fd5b60028601805486019055600386018054830190556004808701849055436007880155600154604080517f40c10f1900000000000000000000000000000000000000000000000000000000815233938101939093526024830185905251600160a060020a03909116916340c10f199160448083019260209291908290030181600087803b15801561070d57600080fd5b505af1158015610721573d6000803e3d6000fd5b505050506040513d602081101561073757600080fd5b505060408051868152602081018490528151600160a060020a038d169233927f5d624aa9c148153ab3446c1b154f660ee7701e549fe9b62dab7171b1c80e6fa2929081900390910190a35060019998505050505050505050565b6000670de0b6b3a764000082825b50506002808404908102840360018114156107df576107dc670de0b6b3a76400006107d0858963ffffffff61094416565b9063ffffffff61097616565b92505b8115156107eb57610813565b909350839061080c670de0b6b3a76400006107d0888063ffffffff61094416565b955061079f565b5090949350505050565b600060026001830190810490151561085257507f80000000000000000000000000000000000000000000000000000000000000005b8291505b8181101561088057809150600181828581151561086f57fe5b60029390930a920401049050610856565b50633b9aca0002919050565b60068101546002820154600583015460009291820191670de0b6b3a76400009182910204846003015401028115156108c057fe5b0492915050565b600160a060020a03811615156108dc57600080fd5b60008054604051600160a060020a03808516939216917f8be0079c531659141344cd1fd0a4f28419497f9722a3daafe3b4186f6b6457e091a36000805473ffffffffffffffffffffffffffffffffffffffff1916600160a060020a0392909216919091179055565b6000821515610955575060006102c1565b82820282848281151561096457fe5b041461096f57600080fd5b9392505050565b600080821161098457600080fd5b6000828481151561099157fe5b0494935050505056fea165627a7a723058204a1e5ab0b63aa8a98e6e4accd79cde71aaf11793178bd5b7f18f9355520211050029",
  "source": "pragma solidity >=0.5.2;\r\n\r\n/**\r\nThis is hackathon edition of our Furance contract. Will be replaced with production version later.\r\n */\r\n\r\nimport \"openzeppelin-solidity/contracts/ownership/Ownable.sol\";\r\nimport \"openzeppelin-solidity/contracts/token/ERC20/IERC20.sol\";\r\nimport \"openzeppelin-solidity/contracts/math/SafeMath.sol\";\r\n\r\n\r\ninterface IPyroToken {\r\n  function mint(address, uint) external returns(bool);\r\n}\r\n\r\n\r\ncontract Furance is Ownable {\r\n  event Burn(address indexed sender, address indexed token, uint value, uint pyroValue);\r\n  using SafeMath for uint;\r\n  \r\n  bool public extinguished;\r\n  IPyroToken public pyro;\r\n\r\n  uint constant alpha = 999892503784850936; // decay per block corresponds 0.5 decay per day\r\n  uint constant DECIMAL_MULTIPLIER=1e18;\r\n  uint constant DECIMAL_HALFMULTIPLIER=1e9;\r\n\r\n\r\n  function _sqrt(uint x) internal pure returns (uint y) {\r\n    uint z = (x + 1) >> 1;\r\n    if ( x+1 == 0) z = 1<<255;\r\n    y = x;\r\n    while (z < y) {\r\n      y = z;\r\n      z = (x / z + z) >> 1;\r\n    }\r\n    y = y * DECIMAL_HALFMULTIPLIER;\r\n  }\r\n\r\n  /* solium-disable-next-line */\r\n  function _pown(uint x, uint z) internal pure returns(uint) {\r\n    uint res = DECIMAL_MULTIPLIER;\r\n    uint t = z;\r\n    uint bit;\r\n    while (true) {\r\n      t = z >> 1;\r\n      bit = z - (t << 1);\r\n      if (bit == 1)\r\n        res = res.mul(x).div(DECIMAL_MULTIPLIER);\r\n      if (t==0) break;\r\n      z = t; \r\n      x = x.mul(x).div(DECIMAL_MULTIPLIER);\r\n    }\r\n    return res;\r\n  }\r\n\r\n\r\n  struct token {\r\n    bool enabled;\r\n    uint a; //mintable performance parameter, depending for market capitalization\r\n    uint b; //tokens burned\r\n    uint c; //tokens minted\r\n    uint r; //burnrate\r\n    uint kappa_0; //initial kappa\r\n    uint w; //weight of initial kappa\r\n    uint blockNumber;\r\n  }\r\n\r\n  mapping(address=>token) tokens;\r\n\r\n  modifier notExitgushed {\r\n    require(!extinguished);\r\n    _;\r\n  }\r\n\r\n  function exitgush() public onlyOwner notExitgushed returns(bool) {\r\n    extinguished=true;\r\n    return true;\r\n  }\r\n\r\n\r\n  function bind() public returns(bool) {\r\n    require(address(0) == address(pyro));\r\n    pyro = IPyroToken(msg.sender);\r\n    return true;\r\n  }\r\n\r\n  function _kappa(token storage t) internal view returns(uint) {\r\n    return (t.c + t.kappa_0 * t.w / DECIMAL_MULTIPLIER) * DECIMAL_MULTIPLIER / (t.b + t.w);\r\n  }\r\n\r\n\r\n  function estimateMintAmount(address token_, uint value) public view returns(uint) {\r\n    token storage t = tokens[token_];\r\n    uint b_i = value;\r\n    uint r_is = t.r * _pown(alpha, block.number - t.blockNumber) / DECIMAL_MULTIPLIER;\r\n    uint r_i = r_is + value;\r\n    uint c_i = t.a*(_sqrt(r_i) - _sqrt(r_is))/ DECIMAL_MULTIPLIER;\r\n    uint kappa = _kappa(t);\r\n    if (c_i > b_i*kappa/DECIMAL_MULTIPLIER) c_i = b_i*kappa/DECIMAL_MULTIPLIER;\r\n    return c_i;\r\n  }\r\n\r\n\r\n  function burn(address token_, uint value, uint minimalPyroValue) public notExitgushed returns (bool) {\r\n    require(IERC20(token_).transferFrom(msg.sender, address(this), value));\r\n    token storage t = tokens[token_];\r\n    require(t.enabled);\r\n    uint b_i = value;\r\n    uint r_is = t.r * _pown(alpha, block.number - t.blockNumber) / DECIMAL_MULTIPLIER;\r\n    uint r_i = r_is + b_i;\r\n    uint c_i = t.a*(_sqrt(r_i) - _sqrt(r_is)) / DECIMAL_MULTIPLIER;\r\n    uint kappa = _kappa(t);\r\n    if (c_i > b_i*kappa/DECIMAL_MULTIPLIER) c_i = b_i*kappa/DECIMAL_MULTIPLIER;\r\n    require(c_i >= minimalPyroValue);\r\n    t.b += b_i;\r\n    t.c += c_i;\r\n    t.r = r_i;\r\n    t.blockNumber = block.number;\r\n    pyro.mint(msg.sender, c_i);\r\n    emit Burn(msg.sender, token_, b_i, c_i);\r\n    return true;\r\n  } \r\n\r\n  function addFuel(address token_, uint a, uint kappa0, uint w) public onlyOwner notExitgushed returns (bool) {\r\n    tokens[token_] = token(true, a, 0, 0, 0, kappa0, w, block.number);\r\n  }\r\n\r\n}",
  "sourcePath": "C:/Users/snjax/Documents/projects/mixed/ethparis/pyrotoken/smart_contracts/contracts/Furance.sol",
  "compiler": {
    "name": "solc",
    "version": "0.5.2+commit.1df8f40c.Emscripten.clang"
  },
  "schemaVersion": "3.0.2",
  "updatedAt": "2019-03-09T13:40:44.139Z",
  "devdoc": {
    "methods": {
      "isOwner()": {
        "return": "true if `msg.sender` is the owner of the contract."
      },
      "owner()": {
        "return": "the address of the owner."
      },
      "renounceOwnership()": {
        "details": "Allows the current owner to relinquish control of the contract."
      },
      "transferOwnership(address)": {
        "details": "Allows the current owner to transfer control of the contract to a newOwner.",
        "params": {
          "newOwner": "The address to transfer ownership to."
        }
      }
    }
  },
  "userdoc": {
    "methods": {
      "renounceOwnership()": {
        "notice": "Renouncing to ownership will leave the contract without an owner. It will not be possible to call the functions with the `onlyOwner` modifier anymore."
      }
    }
  }
}