{
  "contractName": "Furance",
  "abi": [
    {
      "constant": false,
      "inputs": [],
      "name": "renounceOwnership",
      "outputs": [],
      "payable": false,
      "stateMutability": "nonpayable",
      "type": "function",
      "signature": "0x715018a6"
    },
    {
      "constant": true,
      "inputs": [],
      "name": "owner",
      "outputs": [
        {
          "name": "",
          "type": "address"
        }
      ],
      "payable": false,
      "stateMutability": "view",
      "type": "function",
      "signature": "0x8da5cb5b"
    },
    {
      "constant": true,
      "inputs": [],
      "name": "isOwner",
      "outputs": [
        {
          "name": "",
          "type": "bool"
        }
      ],
      "payable": false,
      "stateMutability": "view",
      "type": "function",
      "signature": "0x8f32d59b"
    },
    {
      "constant": true,
      "inputs": [],
      "name": "powered",
      "outputs": [
        {
          "name": "",
          "type": "bool"
        }
      ],
      "payable": false,
      "stateMutability": "view",
      "type": "function",
      "signature": "0xb70c5e75"
    },
    {
      "constant": true,
      "inputs": [],
      "name": "pyro",
      "outputs": [
        {
          "name": "",
          "type": "address"
        }
      ],
      "payable": false,
      "stateMutability": "view",
      "type": "function",
      "signature": "0xe26f024e"
    },
    {
      "constant": true,
      "inputs": [],
      "name": "root",
      "outputs": [
        {
          "name": "",
          "type": "address"
        }
      ],
      "payable": false,
      "stateMutability": "view",
      "type": "function",
      "signature": "0xebf0c717"
    },
    {
      "constant": false,
      "inputs": [
        {
          "name": "newOwner",
          "type": "address"
        }
      ],
      "name": "transferOwnership",
      "outputs": [],
      "payable": false,
      "stateMutability": "nonpayable",
      "type": "function",
      "signature": "0xf2fde38b"
    },
    {
      "inputs": [],
      "payable": false,
      "stateMutability": "nonpayable",
      "type": "constructor",
      "signature": "constructor"
    },
    {
      "anonymous": false,
      "inputs": [
        {
          "indexed": true,
          "name": "sender",
          "type": "address"
        },
        {
          "indexed": true,
          "name": "token",
          "type": "address"
        },
        {
          "indexed": false,
          "name": "value",
          "type": "uint256"
        },
        {
          "indexed": false,
          "name": "pyroValue",
          "type": "uint256"
        }
      ],
      "name": "Burn",
      "type": "event",
      "signature": "0x5d624aa9c148153ab3446c1b154f660ee7701e549fe9b62dab7171b1c80e6fa2"
    },
    {
      "anonymous": false,
      "inputs": [
        {
          "indexed": true,
          "name": "previousOwner",
          "type": "address"
        },
        {
          "indexed": true,
          "name": "newOwner",
          "type": "address"
        }
      ],
      "name": "OwnershipTransferred",
      "type": "event",
      "signature": "0x8be0079c531659141344cd1fd0a4f28419497f9722a3daafe3b4186f6b6457e0"
    },
    {
      "constant": false,
      "inputs": [],
      "name": "switchOff",
      "outputs": [
        {
          "name": "",
          "type": "bool"
        }
      ],
      "payable": false,
      "stateMutability": "nonpayable",
      "type": "function",
      "signature": "0x038d71ee"
    },
    {
      "constant": false,
      "inputs": [],
      "name": "bindRoot",
      "outputs": [
        {
          "name": "",
          "type": "bool"
        }
      ],
      "payable": false,
      "stateMutability": "nonpayable",
      "type": "function",
      "signature": "0x91af04e3"
    },
    {
      "constant": false,
      "inputs": [
        {
          "name": "pyro_",
          "type": "address"
        }
      ],
      "name": "bindPyro",
      "outputs": [
        {
          "name": "",
          "type": "bool"
        }
      ],
      "payable": false,
      "stateMutability": "nonpayable",
      "type": "function",
      "signature": "0xf76a61bd"
    },
    {
      "constant": true,
      "inputs": [
        {
          "name": "token_",
          "type": "address"
        },
        {
          "name": "value",
          "type": "uint256"
        }
      ],
      "name": "estimateMintAmount",
      "outputs": [
        {
          "name": "",
          "type": "uint256"
        }
      ],
      "payable": false,
      "stateMutability": "view",
      "type": "function",
      "signature": "0x3bb1ba6f"
    },
    {
      "constant": false,
      "inputs": [
        {
          "name": "token_",
          "type": "address"
        },
        {
          "name": "value",
          "type": "uint256"
        },
        {
          "name": "minimalPyroValue",
          "type": "uint256"
        }
      ],
      "name": "burn",
      "outputs": [
        {
          "name": "",
          "type": "bool"
        }
      ],
      "payable": false,
      "stateMutability": "nonpayable",
      "type": "function",
      "signature": "0xf5298aca"
    },
    {
      "constant": false,
      "inputs": [
        {
          "name": "token_",
          "type": "address"
        },
        {
          "name": "a",
          "type": "uint256"
        },
        {
          "name": "kappa0",
          "type": "uint256"
        },
        {
          "name": "w",
          "type": "uint256"
        }
      ],
      "name": "addFuel",
      "outputs": [
        {
          "name": "",
          "type": "bool"
        }
      ],
      "payable": false,
      "stateMutability": "nonpayable",
      "type": "function",
      "signature": "0xe63b18e1"
    }
  ],
  "bytecode": "0x608060405234801561001057600080fd5b5060008054600160a060020a0319163317808255604051600160a060020a039190911691907f8be0079c531659141344cd1fd0a4f28419497f9722a3daafe3b4186f6b6457e0908290a36000805460a060020a60ff02191674010000000000000000000000000000000000000000179055610ab3806100906000396000f3fe608060405234801561001057600080fd5b50600436106100ec576000357c010000000000000000000000000000000000000000000000000000000090048063b70c5e75116100a9578063ebf0c71711610083578063ebf0c717146101d1578063f2fde38b146101d9578063f5298aca146101ff578063f76a61bd14610231576100ec565b8063b70c5e7514610189578063e26f024e14610191578063e63b18e114610199576100ec565b8063038d71ee146100f15780633bb1ba6f1461010d578063715018a61461014b5780638da5cb5b146101555780638f32d59b1461017957806391af04e314610181575b600080fd5b6100f9610257565b604080519115158252519081900360200190f35b6101396004803603604081101561012357600080fd5b50600160a060020a0381351690602001356102b6565b60408051918252519081900360200190f35b61015361037b565b005b61015d6103e5565b60408051600160a060020a039092168252519081900360200190f35b6100f96103f4565b6100f9610405565b6100f9610441565b61015d610462565b6100f9600480360360808110156101af57600080fd5b50600160a060020a038135169060208101359060408101359060600135610471565b61015d61054f565b610153600480360360208110156101ef57600080fd5b5035600160a060020a031661055e565b6100f96004803603606081101561021557600080fd5b50600160a060020a03813516906020810135906040013561057d565b6100f96004803603602081101561024757600080fd5b5035600160a060020a0316610832565b60006102616103f4565b151561026c57600080fd5b60005474010000000000000000000000000000000000000000900460ff16151561029557600080fd5b6000805474ff00000000000000000000000000000000000000001916905590565b600160a060020a0382166000908152600360205260408120600781015483908390670de0b6b3a7640000906102f790670de054ef3dac05f89043900361087e565b84600401540281151561030657fe5b0490508481016000670de0b6b3a76400006103208461090a565b6103298461090a565b0386600101540281151561033957fe5b049050600061034786610979565b9050670de0b6b3a76400008582020482111561036d57670de0b6b3a76400008582020491505b509450505050505b92915050565b6103836103f4565b151561038e57600080fd5b60008054604051600160a060020a03909116907f8be0079c531659141344cd1fd0a4f28419497f9722a3daafe3b4186f6b6457e0908390a36000805473ffffffffffffffffffffffffffffffffffffffff19169055565b600054600160a060020a031690565b600054600160a060020a0316331490565b600154600090600160a060020a03161561041e57600080fd5b506001805473ffffffffffffffffffffffffffffffffffffffff19163317815590565b60005474010000000000000000000000000000000000000000900460ff1681565b600254600160a060020a031681565b600061047b6103f4565b151561048657600080fd5b60005474010000000000000000000000000000000000000000900460ff1615156104af57600080fd5b6040805161010081018252600180825260208083019788526000838501818152606085018281526080860183815260a087019a8b5260c08701998a524360e08801908152600160a060020a039d909d168452600394859052969092209451855460ff191690151517855598519284019290925596516002830155519581019590955551600485015591516005840155516006830155915160079091015590565b600154600160a060020a031681565b6105666103f4565b151561057157600080fd5b61057a816109b4565b50565b6000805474010000000000000000000000000000000000000000900460ff1615156105a757600080fd5b604080517f23b872dd000000000000000000000000000000000000000000000000000000008152336004820152306024820152604481018590529051600160a060020a038616916323b872dd9160648083019260209291908290030181600087803b15801561061557600080fd5b505af1158015610629573d6000803e3d6000fd5b505050506040513d602081101561063f57600080fd5b5051151561064c57600080fd5b600160a060020a0384166000908152600360205260409020805460ff16151561067457600080fd5b60008490506000670de0b6b3a764000061069c670de054ef3dac05f84386600701540361087e565b8460040154028115156106ab57fe5b0490508581016000670de0b6b3a76400006106c58461090a565b6106ce8461090a565b038660010154028115156106de57fe5b04905060006106ec86610979565b9050670de0b6b3a76400008582020482111561071257670de0b6b3a76400008582020491505b8782101561071f57600080fd5b60028087018054870190556003870180548401905560048088018590554360078901559054604080517f40c10f1900000000000000000000000000000000000000000000000000000000815233938101939093526024830185905251600160a060020a03909116916340c10f199160448083019260209291908290030181600087803b1580156107ae57600080fd5b505af11580156107c2573d6000803e3d6000fd5b505050506040513d60208110156107d857600080fd5b5050604080518a8152602081018490528151600160a060020a038d169233927f5d624aa9c148153ab3446c1b154f660ee7701e549fe9b62dab7171b1c80e6fa2929081900390910190a35060019998505050505050505050565b600154600090600160a060020a0316331461084c57600080fd5b5060028054600160a060020a03831673ffffffffffffffffffffffffffffffffffffffff199091161790556001919050565b6000670de0b6b3a764000082825b50506002808404908102840360018114156108cc576108c9670de0b6b3a76400006108bd858963ffffffff610a3116565b9063ffffffff610a6316565b92505b8115156108d857610900565b90935083906108f9670de0b6b3a76400006108bd888063ffffffff610a3116565b955061088c565b5090949350505050565b600060026001830190810490151561093f57507f80000000000000000000000000000000000000000000000000000000000000005b8291505b8181101561096d57809150600181828581151561095c57fe5b60029390930a920401049050610943565b50633b9aca0002919050565b60068101546002820154600583015460009291820191670de0b6b3a76400009182910204846003015401028115156109ad57fe5b0492915050565b600160a060020a03811615156109c957600080fd5b60008054604051600160a060020a03808516939216917f8be0079c531659141344cd1fd0a4f28419497f9722a3daafe3b4186f6b6457e091a36000805473ffffffffffffffffffffffffffffffffffffffff1916600160a060020a0392909216919091179055565b6000821515610a4257506000610375565b828202828482811515610a5157fe5b0414610a5c57600080fd5b9392505050565b6000808211610a7157600080fd5b60008284811515610a7e57fe5b0494935050505056fea165627a7a7230582032ac3abca03090f8a5aec73e1202f5490c307802cdfedeede056e0902d26d4d60029",
  "source": "pragma solidity >=0.5.2;\r\n\r\n/**\r\nThis is hackathon edition of our Furance contract. Will be replaced with production version later.\r\n */\r\n\r\nimport \"openzeppelin-solidity/contracts/ownership/Ownable.sol\";\r\nimport \"openzeppelin-solidity/contracts/token/ERC20/IERC20.sol\";\r\nimport \"openzeppelin-solidity/contracts/math/SafeMath.sol\";\r\n\r\ninterface IRoot {\r\n}\r\n\r\ninterface IPyroToken {\r\n  function mint(address, uint) external returns(bool);\r\n}\r\n\r\n\r\ncontract Furance is Ownable {\r\n  event Burn(address indexed sender, address indexed token, uint value, uint pyroValue);\r\n\r\n  using SafeMath for uint;\r\n  \r\n  bool public powered;\r\n  IRoot public root;\r\n  IPyroToken public pyro;\r\n\r\n  uint constant alpha = 999892503784850936; // decay per block corresponds 0.5 decay per day\r\n  \r\n\r\n  uint constant DECIMAL_MULTIPLIER=1e18;\r\n\r\n  constructor () public {\r\n    powered = true;\r\n  }\r\n\r\n  function _sqrt(uint x) internal pure returns (uint y) {\r\n    uint z = (x + 1)>> 1;\r\n    if ( x+1 == 0) z = 1<<255;\r\n    y = x;\r\n    while (z < y) {\r\n      y = z;\r\n      z = (x / z + z) >> 1;\r\n    }\r\n    y=y*1e9;\r\n  }\r\n\r\n  function _pown(uint x, uint z) internal pure returns(uint) {\r\n    uint res = DECIMAL_MULTIPLIER;\r\n    uint t = z;\r\n    uint bit;\r\n    while (true) {\r\n      t = z >> 1;\r\n      bit = z - (t << 1);\r\n      if (bit == 1)\r\n        res = res.mul(x).div(DECIMAL_MULTIPLIER);\r\n      if (t==0) break;\r\n      z = t; \r\n      x = x.mul(x).div(DECIMAL_MULTIPLIER);\r\n    }\r\n    return res;\r\n  }\r\n\r\n\r\n  struct token {\r\n    bool enabled;\r\n    uint a; //mintable performance parameter, depending for market capitalization\r\n    uint b; //tokens burned\r\n    uint c; //tokens minted\r\n    uint r; //burnrate\r\n    uint kappa_0; //initial kappa\r\n    uint w; //weight of initial kappa\r\n    uint blockNumber;\r\n  }\r\n\r\n  mapping(address=>token) tokens;\r\n\r\n  modifier onlyPowered {\r\n    require(powered);\r\n    _;\r\n  }\r\n\r\n  function switchOff() public onlyOwner onlyPowered returns(bool) {\r\n    powered=false;\r\n  }\r\n\r\n  function bindRoot() public returns(bool) {\r\n    require(address(root)==address(0));\r\n    root=IRoot(msg.sender);\r\n    return true;\r\n  }\r\n\r\n  function bindPyro(address pyro_) public returns(bool) {\r\n    require(msg.sender == address(root));\r\n    pyro = IPyroToken(pyro_);\r\n    return true;\r\n  }\r\n\r\n  function _kappa(token storage t) internal view returns(uint) {\r\n    return (t.c + t.kappa_0 * t.w /DECIMAL_MULTIPLIER ) * DECIMAL_MULTIPLIER/ (t.b + t.w);\r\n  }\r\n\r\n\r\n  function estimateMintAmount(address token_, uint value) public view returns(uint) {\r\n    token storage t = tokens[token_];\r\n    uint b_i = value;\r\n    uint r_is = t.r * _pown(alpha, t.blockNumber - block.number) / DECIMAL_MULTIPLIER;\r\n    uint r_i = r_is + value;\r\n    uint c_i = t.a*(_sqrt(r_i) - _sqrt(r_is))/ DECIMAL_MULTIPLIER;\r\n    uint kappa = _kappa(t);\r\n    if (c_i > b_i*kappa/DECIMAL_MULTIPLIER) c_i = b_i*kappa/DECIMAL_MULTIPLIER;\r\n    return c_i;\r\n  }\r\n\r\n\r\n\r\n  function burn(address token_, uint value, uint minimalPyroValue) public onlyPowered returns (bool) {\r\n    require(IERC20(token_).transferFrom(msg.sender, address(this), value));\r\n    token storage t = tokens[token_];\r\n    require(t.enabled);\r\n    uint b_i = value;\r\n    uint r_is = t.r * _pown(alpha, t.blockNumber - block.number) / DECIMAL_MULTIPLIER;\r\n    uint r_i = r_is + value;\r\n    uint c_i = t.a*(_sqrt(r_i) - _sqrt(r_is)) / DECIMAL_MULTIPLIER;\r\n    uint kappa = _kappa(t);\r\n    if (c_i > b_i*kappa/DECIMAL_MULTIPLIER) c_i = b_i*kappa/DECIMAL_MULTIPLIER;\r\n    require(c_i >= minimalPyroValue);\r\n    t.b += b_i;\r\n    t.c += c_i;\r\n    t.r = r_i;\r\n    t.blockNumber = block.number;\r\n    pyro.mint(msg.sender, c_i);\r\n    emit Burn(msg.sender, token_, value, c_i);\r\n    return true;\r\n  } \r\n\r\n  function addFuel(address token_, uint a, uint kappa0, uint w) public onlyOwner onlyPowered returns (bool) {\r\n    tokens[token_] = token(true, a, 0, 0, 0, kappa0, w, block.number);\r\n  }\r\n\r\n}",
  "sourcePath": "C:/Users/snjax/Documents/projects/mixed/ethparis/pyrotoken/smart_contracts/contracts/Furance.sol",
  "compiler": {
    "name": "solc",
    "version": "0.5.2+commit.1df8f40c.Emscripten.clang"
  },
  "schemaVersion": "3.0.2",
  "updatedAt": "2019-03-08T23:57:32.262Z",
  "devdoc": {
    "methods": {
      "isOwner()": {
        "return": "true if `msg.sender` is the owner of the contract."
      },
      "owner()": {
        "return": "the address of the owner."
      },
      "renounceOwnership()": {
        "details": "Allows the current owner to relinquish control of the contract."
      },
      "transferOwnership(address)": {
        "details": "Allows the current owner to transfer control of the contract to a newOwner.",
        "params": {
          "newOwner": "The address to transfer ownership to."
        }
      }
    }
  },
  "userdoc": {
    "methods": {
      "renounceOwnership()": {
        "notice": "Renouncing to ownership will leave the contract without an owner. It will not be possible to call the functions with the `onlyOwner` modifier anymore."
      }
    }
  }
}