{
  "contractName": "Furance",
  "abi": [
    {
      "constant": false,
      "inputs": [],
      "name": "renounceOwnership",
      "outputs": [],
      "payable": false,
      "stateMutability": "nonpayable",
      "type": "function"
    },
    {
      "constant": true,
      "inputs": [],
      "name": "owner",
      "outputs": [
        {
          "name": "",
          "type": "address"
        }
      ],
      "payable": false,
      "stateMutability": "view",
      "type": "function"
    },
    {
      "constant": true,
      "inputs": [],
      "name": "isOwner",
      "outputs": [
        {
          "name": "",
          "type": "bool"
        }
      ],
      "payable": false,
      "stateMutability": "view",
      "type": "function"
    },
    {
      "constant": true,
      "inputs": [],
      "name": "powered",
      "outputs": [
        {
          "name": "",
          "type": "bool"
        }
      ],
      "payable": false,
      "stateMutability": "view",
      "type": "function"
    },
    {
      "constant": true,
      "inputs": [],
      "name": "pyro",
      "outputs": [
        {
          "name": "",
          "type": "address"
        }
      ],
      "payable": false,
      "stateMutability": "view",
      "type": "function"
    },
    {
      "constant": true,
      "inputs": [],
      "name": "root",
      "outputs": [
        {
          "name": "",
          "type": "address"
        }
      ],
      "payable": false,
      "stateMutability": "view",
      "type": "function"
    },
    {
      "constant": false,
      "inputs": [
        {
          "name": "newOwner",
          "type": "address"
        }
      ],
      "name": "transferOwnership",
      "outputs": [],
      "payable": false,
      "stateMutability": "nonpayable",
      "type": "function"
    },
    {
      "anonymous": false,
      "inputs": [
        {
          "indexed": true,
          "name": "sender",
          "type": "address"
        },
        {
          "indexed": true,
          "name": "token",
          "type": "address"
        },
        {
          "indexed": false,
          "name": "value",
          "type": "uint256"
        },
        {
          "indexed": false,
          "name": "pyroValue",
          "type": "uint256"
        }
      ],
      "name": "Burn",
      "type": "event"
    },
    {
      "anonymous": false,
      "inputs": [
        {
          "indexed": true,
          "name": "previousOwner",
          "type": "address"
        },
        {
          "indexed": true,
          "name": "newOwner",
          "type": "address"
        }
      ],
      "name": "OwnershipTransferred",
      "type": "event"
    },
    {
      "constant": false,
      "inputs": [],
      "name": "switchOff",
      "outputs": [
        {
          "name": "",
          "type": "bool"
        }
      ],
      "payable": false,
      "stateMutability": "nonpayable",
      "type": "function"
    },
    {
      "constant": false,
      "inputs": [],
      "name": "bindRoot",
      "outputs": [
        {
          "name": "",
          "type": "bool"
        }
      ],
      "payable": false,
      "stateMutability": "nonpayable",
      "type": "function"
    },
    {
      "constant": false,
      "inputs": [
        {
          "name": "pyro_",
          "type": "address"
        }
      ],
      "name": "bindPyro",
      "outputs": [
        {
          "name": "",
          "type": "bool"
        }
      ],
      "payable": false,
      "stateMutability": "nonpayable",
      "type": "function"
    },
    {
      "constant": true,
      "inputs": [
        {
          "name": "token_",
          "type": "address"
        },
        {
          "name": "value",
          "type": "uint256"
        }
      ],
      "name": "estimateMintAmount",
      "outputs": [
        {
          "name": "",
          "type": "uint256"
        }
      ],
      "payable": false,
      "stateMutability": "view",
      "type": "function"
    },
    {
      "constant": false,
      "inputs": [
        {
          "name": "token_",
          "type": "address"
        },
        {
          "name": "value",
          "type": "uint256"
        },
        {
          "name": "minimalPyroValue",
          "type": "uint256"
        }
      ],
      "name": "burn",
      "outputs": [
        {
          "name": "",
          "type": "bool"
        }
      ],
      "payable": false,
      "stateMutability": "nonpayable",
      "type": "function"
    }
  ],
  "bytecode": "0x6080604081905260008054600160a060020a0319163317808255600160a060020a0316917f8be0079c531659141344cd1fd0a4f28419497f9722a3daafe3b4186f6b6457e0908290a36108d3806100576000396000f3fe608060405234801561001057600080fd5b50600436106100d1576000357c010000000000000000000000000000000000000000000000000000000090048063b70c5e751161008e578063b70c5e751461016e578063e26f024e14610176578063ebf0c7171461017e578063f2fde38b14610186578063f5298aca146101ac578063f76a61bd146101de576100d1565b8063038d71ee146100d65780633bb1ba6f146100f2578063715018a6146101305780638da5cb5b1461013a5780638f32d59b1461015e57806391af04e314610166575b600080fd5b6100de610204565b604080519115158252519081900360200190f35b61011e6004803603604081101561010857600080fd5b50600160a060020a038135169060200135610263565b60408051918252519081900360200190f35b610138610301565b005b61014261036b565b60408051600160a060020a039092168252519081900360200190f35b6100de61037a565b6100de61038b565b6100de6103c7565b6101426103e8565b6101426103f7565b6101386004803603602081101561019c57600080fd5b5035600160a060020a0316610406565b6100de600480360360608110156101c257600080fd5b50600160a060020a038135169060208101359060400135610425565b6100de600480360360208110156101f457600080fd5b5035600160a060020a031661068c565b600061020e61037a565b151561021957600080fd5b60005474010000000000000000000000000000000000000000900460ff16151561024257600080fd5b6000805474ff00000000000000000000000000000000000000001916905590565b600160a060020a0382166000908152600360205260408120600781015483908390670de0b6b3a7640000906102a490670de054ef3dac05f8904390036106d7565b8460040154028115156102b357fe5b04905084810160006102c483610763565b6102cd83610763565b03856001015402905060006102e1866107a6565b90508085028211156102f35780850291505b509450505050505b92915050565b61030961037a565b151561031457600080fd5b60008054604051600160a060020a03909116907f8be0079c531659141344cd1fd0a4f28419497f9722a3daafe3b4186f6b6457e0908390a36000805473ffffffffffffffffffffffffffffffffffffffff19169055565b600054600160a060020a031690565b600054600160a060020a0316331490565b600154600090600160a060020a0316156103a457600080fd5b506001805473ffffffffffffffffffffffffffffffffffffffff19163317815590565b60005474010000000000000000000000000000000000000000900460ff1681565b600254600160a060020a031681565b600154600160a060020a031681565b61040e61037a565b151561041957600080fd5b610422816107d4565b50565b604080517f23b872dd000000000000000000000000000000000000000000000000000000008152336004820152306024820152604481018490529051600091600160a060020a038616916323b872dd9160648082019260209290919082900301818787803b15801561049657600080fd5b505af11580156104aa573d6000803e3d6000fd5b505050506040513d60208110156104c057600080fd5b505115156104cd57600080fd5b600160a060020a0384166000908152600360205260409020805460ff1615156104f557600080fd5b60008490506000670de0b6b3a764000061051d670de054ef3dac05f8438660070154036106d7565b84600401540281151561052c57fe5b049050858101600061053d83610763565b61054683610763565b038560010154029050600061055a866107a6565b905080850282111561056c5780850291505b8782101561057957600080fd5b60028087018054870190556003870180548401905560048088018590554360078901559054604080517f40c10f1900000000000000000000000000000000000000000000000000000000815233938101939093526024830185905251600160a060020a03909116916340c10f199160448083019260209291908290030181600087803b15801561060857600080fd5b505af115801561061c573d6000803e3d6000fd5b505050506040513d602081101561063257600080fd5b5050604080518a8152602081018490528151600160a060020a038d169233927f5d624aa9c148153ab3446c1b154f660ee7701e549fe9b62dab7171b1c80e6fa2929081900390910190a35060019998505050505050505050565b600154600090600160a060020a031633146106a657600080fd5b6002805473ffffffffffffffffffffffffffffffffffffffff1916600160a060020a03939093169290921790915590565b6000670de0b6b3a764000082825b505060028084049081028403600181141561072557610722670de0b6b3a7640000610716858963ffffffff61085116565b9063ffffffff61088316565b92505b81151561073157610759565b9093508390610752670de0b6b3a7640000610716888063ffffffff61085116565b95506106e5565b5090949350505050565b8060018082160160020a81045b8181101561079a57809150600181828581151561078957fe5b60029390930a920401049050610770565b50633b9aca0002919050565b6000816006015482600201540182600601548360050154028360030154018115156107cd57fe5b0492915050565b600160a060020a03811615156107e957600080fd5b60008054604051600160a060020a03808516939216917f8be0079c531659141344cd1fd0a4f28419497f9722a3daafe3b4186f6b6457e091a36000805473ffffffffffffffffffffffffffffffffffffffff1916600160a060020a0392909216919091179055565b6000821515610862575060006102fb565b82820282848281151561087157fe5b041461087c57600080fd5b9392505050565b600080821161089157600080fd5b6000828481151561089e57fe5b0494935050505056fea165627a7a723058205fab80b188f7e8e778be3eb1110f4b9bf85872de678dbffd4da2ce9276ce4c560029",
  "source": "pragma solidity >=0.5.2;\r\n\r\n/**\r\nThis is hackathon edition of our Furance contract. Will be replaced with production version later.\r\n */\r\n\r\nimport \"openzeppelin-solidity/contracts/ownership/Ownable.sol\";\r\nimport \"openzeppelin-solidity/contracts/token/ERC20/IERC20.sol\";\r\nimport \"openzeppelin-solidity/contracts/math/SafeMath.sol\";\r\n\r\ninterface IRoot {\r\n}\r\n\r\ninterface IPyroToken {\r\n  function mint(address, uint) external returns(bool);\r\n}\r\n\r\n\r\ncontract Furance is Ownable {\r\n  event Burn(address indexed sender, address indexed token, uint value, uint pyroValue);\r\n\r\n  using SafeMath for uint;\r\n  \r\n  bool public powered;\r\n  IRoot public root;\r\n  IPyroToken public pyro;\r\n\r\n  uint constant alpha = 999892503784850936; // decay per block corresponds 0.5 decay per day\r\n  \r\n\r\n  uint constant DECIMAL_MULTIPLIER=1e18;\r\n\r\n  function _sqrt(uint x) internal pure returns (uint y) {\r\n    uint z = x >> 1 + (x & 1);\r\n    y = x;\r\n    while (z < y) {\r\n      y = z;\r\n      z = (x / z + z) >> 1;\r\n    }\r\n    y = y * 1e9;\r\n  }\r\n\r\n  function _pown(uint x, uint z) internal pure returns(uint) {\r\n    uint res = DECIMAL_MULTIPLIER;\r\n    uint t = z;\r\n    uint bit;\r\n    while (true) {\r\n      t = z >> 1;\r\n      bit = z - (t << 1);\r\n      if (bit == 1)\r\n        res = res.mul(x).div(DECIMAL_MULTIPLIER);\r\n      if (t==0) break;\r\n      z = t; \r\n      x = x.mul(x).div(DECIMAL_MULTIPLIER);\r\n    }\r\n    return res;\r\n  }\r\n\r\n\r\n  struct token {\r\n    bool enabled;\r\n    uint a; //mintable performance parameter, depending for market capitalization\r\n    uint b; //tokens burned\r\n    uint c; //tokens minted\r\n    uint r; //burnrate\r\n    uint kappa_0; //initial kappa\r\n    uint w; //weight of initial kappa\r\n    uint blockNumber;\r\n  }\r\n\r\n  mapping(address=>token) tokens;\r\n\r\n  modifier onlyPowered {\r\n    require(powered);\r\n    _;\r\n  }\r\n\r\n  function switchOff() public onlyOwner onlyPowered returns(bool) {\r\n    powered=false;\r\n  }\r\n\r\n  function bindRoot() public returns(bool) {\r\n    require(address(root)==address(0));\r\n    root=IRoot(msg.sender);\r\n    return true;\r\n  }\r\n\r\n  function bindPyro(address pyro_) public returns(bool) {\r\n    require(msg.sender == address(root));\r\n    pyro = IPyroToken(pyro_);\r\n  }\r\n\r\n  function _kappa(token storage t) internal view returns(uint) {\r\n    return (t.c + t.kappa_0 * t.w) / (t.b + t.w);\r\n  }\r\n\r\n\r\n  function estimateMintAmount(address token_, uint value) public view returns(uint) {\r\n    token storage t = tokens[token_];\r\n    uint b_i = value;\r\n    uint r_is = t.r * _pown(alpha, t.blockNumber - block.number) / DECIMAL_MULTIPLIER;\r\n    uint r_i = r_is + value;\r\n    uint c_i = t.a*(_sqrt(r_i) - _sqrt(r_is));\r\n    uint kappa = _kappa(t);\r\n    if (c_i > b_i*kappa) c_i = b_i*kappa;\r\n    return c_i;\r\n  }\r\n\r\n\r\n\r\n  function burn(address token_, uint value, uint minimalPyroValue) public returns (bool) {\r\n    require(IERC20(token_).transferFrom(msg.sender, address(this), value));\r\n    token storage t = tokens[token_];\r\n    require(t.enabled);\r\n    uint b_i = value;\r\n    uint r_is = t.r * _pown(alpha, t.blockNumber - block.number) / DECIMAL_MULTIPLIER;\r\n    uint r_i = r_is + value;\r\n    uint c_i = t.a*(_sqrt(r_i) - _sqrt(r_is));\r\n    uint kappa = _kappa(t);\r\n    if (c_i > b_i*kappa) c_i = b_i*kappa;\r\n    require(c_i >= minimalPyroValue);\r\n    t.b += b_i;\r\n    t.c += c_i;\r\n    t.r = r_i;\r\n    t.blockNumber = block.number;\r\n    pyro.mint(msg.sender, c_i);\r\n    emit Burn(msg.sender, token_, value, c_i);\r\n    return true;\r\n  } \r\n\r\n}",
  "sourcePath": "C:/Users/snjax/Documents/projects/mixed/ethparis/pyrotoken/smart_contracts/contracts/Furance.sol",
  "compiler": {
    "name": "solc",
    "version": "0.5.2+commit.1df8f40c.Emscripten.clang"
  },
  "schemaVersion": "3.0.2",
  "updatedAt": "2019-03-08T22:41:10.970Z",
  "devdoc": {
    "methods": {
      "isOwner()": {
        "return": "true if `msg.sender` is the owner of the contract."
      },
      "owner()": {
        "return": "the address of the owner."
      },
      "renounceOwnership()": {
        "details": "Allows the current owner to relinquish control of the contract."
      },
      "transferOwnership(address)": {
        "details": "Allows the current owner to transfer control of the contract to a newOwner.",
        "params": {
          "newOwner": "The address to transfer ownership to."
        }
      }
    }
  },
  "userdoc": {
    "methods": {
      "renounceOwnership()": {
        "notice": "Renouncing to ownership will leave the contract without an owner. It will not be possible to call the functions with the `onlyOwner` modifier anymore."
      }
    }
  }
}