{
  "contractName": "Root",
  "abi": [
    {
      "constant": true,
      "inputs": [],
      "name": "mode",
      "outputs": [
        {
          "name": "",
          "type": "uint256"
        }
      ],
      "payable": false,
      "stateMutability": "view",
      "type": "function"
    },
    {
      "constant": false,
      "inputs": [],
      "name": "renounceOwnership",
      "outputs": [],
      "payable": false,
      "stateMutability": "nonpayable",
      "type": "function"
    },
    {
      "constant": true,
      "inputs": [],
      "name": "owner",
      "outputs": [
        {
          "name": "",
          "type": "address"
        }
      ],
      "payable": false,
      "stateMutability": "view",
      "type": "function"
    },
    {
      "constant": true,
      "inputs": [],
      "name": "isOwner",
      "outputs": [
        {
          "name": "",
          "type": "bool"
        }
      ],
      "payable": false,
      "stateMutability": "view",
      "type": "function"
    },
    {
      "constant": true,
      "inputs": [],
      "name": "pyro",
      "outputs": [
        {
          "name": "",
          "type": "address"
        }
      ],
      "payable": false,
      "stateMutability": "view",
      "type": "function"
    },
    {
      "constant": false,
      "inputs": [
        {
          "name": "newOwner",
          "type": "address"
        }
      ],
      "name": "transferOwnership",
      "outputs": [],
      "payable": false,
      "stateMutability": "nonpayable",
      "type": "function"
    },
    {
      "anonymous": false,
      "inputs": [
        {
          "indexed": true,
          "name": "previousOwner",
          "type": "address"
        },
        {
          "indexed": true,
          "name": "newOwner",
          "type": "address"
        }
      ],
      "name": "OwnershipTransferred",
      "type": "event"
    },
    {
      "constant": false,
      "inputs": [
        {
          "name": "pyro_",
          "type": "address"
        }
      ],
      "name": "bindPyro",
      "outputs": [
        {
          "name": "",
          "type": "bool"
        }
      ],
      "payable": false,
      "stateMutability": "nonpayable",
      "type": "function"
    },
    {
      "constant": false,
      "inputs": [
        {
          "name": "furance_",
          "type": "address"
        }
      ],
      "name": "addFurance",
      "outputs": [
        {
          "name": "",
          "type": "bool"
        }
      ],
      "payable": false,
      "stateMutability": "nonpayable",
      "type": "function"
    },
    {
      "constant": false,
      "inputs": [],
      "name": "upgradeToProduction",
      "outputs": [
        {
          "name": "",
          "type": "bool"
        }
      ],
      "payable": false,
      "stateMutability": "nonpayable",
      "type": "function"
    }
  ],
  "bytecode": "0x60806040819052600060018190558054600160a060020a0319163317808255600160a060020a0316917f8be0079c531659141344cd1fd0a4f28419497f9722a3daafe3b4186f6b6457e0908290a361063b8061005c6000396000f3fe608060405234801561001057600080fd5b50600436106100b0576000357c0100000000000000000000000000000000000000000000000000000000900480638f32d59b116100835780638f32d59b14610119578063e26f024e14610121578063ee9d8d2414610129578063f2fde38b1461014f578063f76a61bd14610175576100b0565b8063295a5212146100b55780633e0984f7146100cf578063715018a6146100eb5780638da5cb5b146100f5575b600080fd5b6100bd61019b565b60408051918252519081900360200190f35b6100d76101a1565b604080519115158252519081900360200190f35b6100f36101cc565b005b6100fd610236565b60408051600160a060020a039092168252519081900360200190f35b6100d7610245565b6100fd610256565b6100d76004803603602081101561013f57600080fd5b5035600160a060020a0316610265565b6100f36004803603602081101561016557600080fd5b5035600160a060020a0316610478565b6100d76004803603602081101561018b57600080fd5b5035600160a060020a0316610497565b60015481565b60006101ab610245565b15156101b657600080fd5b600154156101c357600080fd5b50600180805590565b6101d4610245565b15156101df57600080fd5b60008054604051600160a060020a03909116907f8be0079c531659141344cd1fd0a4f28419497f9722a3daafe3b4186f6b6457e0908390a36000805473ffffffffffffffffffffffffffffffffffffffff19169055565b600054600160a060020a031690565b600054600160a060020a0316331490565b600254600160a060020a031681565b600061026f610245565b151561027a57600080fd5b6001541561028757600080fd5b600254600160a060020a0316151561029e57600080fd5b600082905080600160a060020a03166391af04e36040518163ffffffff167c0100000000000000000000000000000000000000000000000000000000028152600401602060405180830381600087803b1580156102fa57600080fd5b505af115801561030e573d6000803e3d6000fd5b505050506040513d602081101561032457600080fd5b5051151561033157600080fd5b600254604080517ff76a61bd000000000000000000000000000000000000000000000000000000008152600160a060020a03928316600482015290519183169163f76a61bd916024808201926020929091908290030181600087803b15801561039957600080fd5b505af11580156103ad573d6000803e3d6000fd5b505050506040513d60208110156103c357600080fd5b505115156103d057600080fd5b600254604080517fee9d8d24000000000000000000000000000000000000000000000000000000008152600160a060020a0386811660048301529151919092169163ee9d8d249160248083019260209291908290030181600087803b15801561043857600080fd5b505af115801561044c573d6000803e3d6000fd5b505050506040513d602081101561046257600080fd5b5051151561046f57600080fd5b50600192915050565b610480610245565b151561048b57600080fd5b61049481610592565b50565b60006104a1610245565b15156104ac57600080fd5b600154156104b957600080fd5b600254600160a060020a0316156104cf57600080fd5b6002805473ffffffffffffffffffffffffffffffffffffffff1916600160a060020a038481169190911791829055604080517f91af04e3000000000000000000000000000000000000000000000000000000008152905192909116916391af04e3916004808201926020929091908290030181600087803b15801561055357600080fd5b505af1158015610567573d6000803e3d6000fd5b505050506040513d602081101561057d57600080fd5b5051151561058a57600080fd5b506001919050565b600160a060020a03811615156105a757600080fd5b60008054604051600160a060020a03808516939216917f8be0079c531659141344cd1fd0a4f28419497f9722a3daafe3b4186f6b6457e091a36000805473ffffffffffffffffffffffffffffffffffffffff1916600160a060020a039290921691909117905556fea165627a7a72305820751981828afba6a5254a89ddf465fe04483f84ae79434f07acdab9bac7d2038e0029",
  "source": "pragma solidity >=0.5.2;\r\n\r\nimport \"openzeppelin-solidity/contracts/ownership/Ownable.sol\";\r\n\r\ninterface IFurance {\r\n  function bindRoot() external returns(bool);\r\n  function bindPyro(address pyro) external returns(bool);\r\n}\r\n\r\ninterface IPyroToken {\r\n  function bindRoot() external returns(bool);\r\n  function addFurance(address furance_) external returns(bool);\r\n}\r\n\r\ncontract Root is Ownable {\r\n  uint public mode = 0;\r\n  uint constant MODE_HACKATHON = 0;\r\n  uint constant MODE_PRODUCTION = 1;\r\n\r\n  IPyroToken public pyro;\r\n\r\n  modifier onlyHack {\r\n    require(mode==MODE_HACKATHON);\r\n    _;\r\n  }\r\n\r\n  function bindPyro(address pyro_) onlyOwner onlyHack public returns(bool) {\r\n    require(address(pyro)==address(0));\r\n    pyro = IPyroToken(pyro_);\r\n    require(pyro.bindRoot());\r\n    return true;\r\n  }\r\n\r\n  function addFurance(address furance_) onlyOwner onlyHack public returns(bool) {\r\n    require(address(pyro)!=address(0));\r\n    IFurance furance = IFurance(furance_);\r\n    require(furance.bindRoot());\r\n    require(furance.bindPyro(address(pyro)));\r\n    require(pyro.addFurance(furance_));\r\n    return true;\r\n  }\r\n\r\n  function upgradeToProduction() onlyOwner onlyHack public returns(bool) {\r\n    mode=MODE_PRODUCTION;\r\n    return true;\r\n  }\r\n\r\n\r\n}",
  "sourcePath": "C:/Users/snjax/Documents/projects/mixed/ethparis/pyrotoken/smart_contracts/contracts/Root.sol",
  "compiler": {
    "name": "solc",
    "version": "0.5.2+commit.1df8f40c.Emscripten.clang"
  },
  "schemaVersion": "3.0.2",
  "updatedAt": "2019-03-08T22:40:39.494Z",
  "devdoc": {
    "methods": {
      "isOwner()": {
        "return": "true if `msg.sender` is the owner of the contract."
      },
      "owner()": {
        "return": "the address of the owner."
      },
      "renounceOwnership()": {
        "details": "Allows the current owner to relinquish control of the contract."
      },
      "transferOwnership(address)": {
        "details": "Allows the current owner to transfer control of the contract to a newOwner.",
        "params": {
          "newOwner": "The address to transfer ownership to."
        }
      }
    }
  },
  "userdoc": {
    "methods": {
      "renounceOwnership()": {
        "notice": "Renouncing to ownership will leave the contract without an owner. It will not be possible to call the functions with the `onlyOwner` modifier anymore."
      }
    }
  }
}